{
  "transactions": [
    {
      "hash": "0x5328be1281af443682fe82687478bdc3547e9a7c3fc59231d305ba57033f16ab",
      "transactionType": "CALL",
      "contractName": null,
      "contractAddress": "0xfe3c05334d3383f75f54853962425e3dff2dca86",
      "function": "mint(address,uint256)",
      "arguments": [
        "0xB8cf8E77c2b92Ce0C0FB3efa4B04ceBFde557695",
        "30000000000000000000000"
      ],
      "transaction": {
        "from": "0x75f6acf1b5ccf85a73f999d2365f5424162fa00a",
        "to": "0xfe3c05334d3383f75f54853962425e3dff2dca86",
        "gas": "0x1270d",
        "value": "0x0",
        "input": "0x40c10f19000000000000000000000000b8cf8e77c2b92ce0c0fb3efa4b04cebfde55769500000000000000000000000000000000000000000000065a4da25d3016c00000",
        "nonce": "0x8",
        "chainId": "0x128"
      },
      "additionalContracts": [],
      "isFixedGasLimit": false
    }
  ],
  "receipts": [
    {
      "status": "0x1",
      "cumulativeGasUsed": "0x312ee0",
      "logs": [
        {
          "address": "0xfe3c05334d3383f75f54853962425e3dff2dca86",
          "topics": [
            "0xddf252ad1be2c89b69c2b068fc378daa952ba7f163c4a11628f55a4df523b3ef",
            "0x0000000000000000000000000000000000000000000000000000000000000000",
            "0x000000000000000000000000b8cf8e77c2b92ce0c0fb3efa4b04cebfde557695"
          ],
          "data": "0x00000000000000000000000000000000000000000000065a4da25d3016c00000",
          "blockHash": "0x12a602a55a2fca74384cbd5db55980cbcc525e8edc5191a9ed43bf380bf3de30",
          "blockNumber": "0x19992db",
          "blockTimestamp": "0x6901dd77",
          "transactionHash": "0x5328be1281af443682fe82687478bdc3547e9a7c3fc59231d305ba57033f16ab",
          "transactionIndex": "0x9",
          "logIndex": "0x1",
          "removed": false
        }
      ],
      "logsBloom": "0x00000008000000000000000000000000000000000000000000000000000000000000100000000000000000000008000000000000000000000000000000000000000000000000000000000008000000000000000000000000000000000000000000000000020000000000000000000800800000000000000000000010000000000000000000000000000000000000000000000000800000000000000000000000000000000000000000000000000000000000000000000000000000000000000000000002000000000000000000000000000000000000000000000000000020000000000000000000000000000000000000000000040000000000000000000000",
      "type": "0x2",
      "transactionHash": "0x5328be1281af443682fe82687478bdc3547e9a7c3fc59231d305ba57033f16ab",
      "transactionIndex": "0x9",
      "blockHash": "0x12a602a55a2fca74384cbd5db55980cbcc525e8edc5191a9ed43bf380bf3de30",
      "blockNumber": "0x19992db",
      "gasUsed": "0xd59e",
      "effectiveGasPrice": "0x641dff4c00",
      "from": "0x75f6acf1b5ccf85a73f999d2365f5424162fa00a",
      "to": "0xfe3c05334d3383f75f54853962425e3dff2dca86",
      "contractAddress": "0xfe3c05334d3383f75f54853962425e3dff2dca86",
      "root": "0x56e81f171bcc55a6ff8345e692c0f86e5b48e01b996cadc001622fb5e363b421"
    }
  ],
  "libraries": [],
  "pending": [],
  "returns": {},
  "timestamp": 1761729915432,
  "chain": 296,
  "commit": "6489cd8"
}